:100000000C9463000C948B000C948B000C948B006C
:100010000C948B000C948B000C948B000C948B0034
:100020000C948B000C948B000C948B000C94F401BA
:100030000C948B000C948B000C948B000C948B0014
:100040000C9458030C948B000C9447040C948B0074
:100050000C948B000C948B000C948B000C948B00F4
:100060000C948B000C948B000000000024002700EF
:100070002A0000000000250028002B0000000000DE
:1000800023002600290004040404040404040202DA
:100090000202020203030303030301020408102007
:1000A0004080010204081020010204081020000012
:1000B0000007000201000003040600000000000029
:1000C0000000BB02CC0511241FBECFEFD8E0DEBF7D
:1000D000CDBF11E0A0E0B1E0ECE2F0E102C005909C
:1000E0000D92A031B107D9F711E0A0E1B1E001C054
:1000F0001D92A23FB107E1F710E0C6ECD0E004C0CA
:100100002297FE010E941008C23CD107C9F70E9445
:1001100051030C9414080C940000FC018091100110
:100120008C30A0F480838F5F80931001815090E029
:10013000FC01EE0FFF1FEE0FFF1FE80FF91FEF5E30
:10014000FE4F88EB9BE09283818308958FEF80833D
:1001500008959F92AF92BF92CF92DF92EF92FF925B
:100160000F931F93FC01AB0190808BE0891508F47D
:1001700092C0292D30E0683C71050CF048C000D0D9
:1001800000D0BA01882777FD8095982FF901EE0FEE
:10019000FF1FEE0FFF1FE20FF31FEF5EFE4F2381E5
:1001A000332727FD309548E8A42EB12CA21AB30AB4
:1001B000AA0CBB1CAA0CBB1CCC24B7FCC094DC2C26
:1001C000E481FF27E7FDF09528E532E02E1B3F0B89
:1001D000220F331F220F331F442737FD4095542F22
:1001E000EDB7FEB7218332834383548320E030E0B0
:1001F00040E050E014EBE12EF12C012D112D0E9476
:100200003607AB010F900F900F900F9028C0F901A7
:10021000EE0FFF1FEE0FFF1FE20FF31FEF5EFE4F0B
:100220008381992787FD909528E830E0281B390BBA
:10023000220F331F220F331F621773077CF0848154
:10024000992787FD909528E532E0281B390B220F6E
:10025000331F220F331F241735070CF4A901CA01DD
:10026000AA2797FDA095BA2F0697A109B109880F73
:10027000991FAA1FBB1F4FB7F894292D30E0F90131
:10028000EE0FFF1FEE0FFF1FE20FF31FEF5EFE4F9B
:10029000928381834FBF1F910F91FF90EF90DF906A
:1002A000CF90BF90AF909F900895CF92DF92EF9242
:1002B000FF921F93CF93DF93EC01162F7A01690110
:1002C00088818C3008F07DC0862F61E00E94DA03BF
:1002D000888190E0FC01EE0FFF1FEE0FFF1FE80F7B
:1002E000F91FEF5EFE4F1F738081807C812B80831E
:1002F000888190E0FC01EE0FFF1FEE0FFF1FE80F5B
:10030000F91FEF5EFE4F80E292E08E199F0964E0D4
:1003100070E00E94AA076383888190E0FC01EE0FE1
:10032000FF1FEE0FFF1FE80FF91FEF5EFE4F80E685
:1003300099E08C199D0964E070E00E94AA0764832B
:10034000A8818A2F6CE00E949E07682F70E0AB01A5
:10035000440F551F460F571F440F551F440F551F7D
:1003600020E030E0C901840F951FFC01EE0FFF1F54
:10037000EE0FFF1FE80FF91FEF5EFE4F808186FD35
:1003800012C02F5F3F4F2C30310561F723C0109210
:10039000800082E08093810010928500109284009A
:1003A00086BB80936F008A2F90E0FC01EE0FFF1F49
:1003B000EE0FFF1FE80FF91FEF5EFE4F8081806494
:1003C00080838881DF91CF911F91FF90EF90DF9024
:1003D000CF900895672BD9F2E6CF40E252E020E6B5
:1003E00039E00E94550108951F920F920FB60F92A7
:1003F00011242F933F934F935F936F937F938F932A
:100400009F93AF93BF93EF93FF9380914D0187FF2D
:1004100005C010928500109284002FC020914D01DC
:10042000332727FD30958091100190E02817390778
:1004300024F580914D01992787FD9095FC01EE0FE1
:10044000FF1FEE0FFF1FE80FF91FEF5EFE4F8081C9
:1004500086FF13C080914D01992787FD9095FC017F
:10046000EE0FFF1FEE0FFF1FE80FF91FEF5EFE4FAD
:1004700080818F7360E00E94FA0380914D018F5F4D
:1004800080934D0120914D01332727FD30958091B8
:10049000100190E0281739070CF054C080914D01ED
:1004A0008C300CF04FC020918400309185008091F9
:1004B0004D01992787FD9095FC01EE0FFF1FEE0F70
:1004C000FF1FE80FF91FEF5EFE4F81819281280F19
:1004D000391F309389002093880080914D0199271E
:1004E00087FD9095FC01EE0FFF1FEE0FFF1FE80F39
:1004F000F91FEF5EFE4F808186FF2CC080914D0179
:10050000992787FD9095FC01EE0FFF1FEE0FFF1F4F
:10051000E80FF91FEF5EFE4F80818F7361E00E944C
:10052000FA0318C080E49CE905C080918400909192
:100530008500049690938900809388008FEF8093C4
:100540004D0108C0809184009091850084549C499D
:1005500048F3EBCFFF91EF91BF91AF919F918F91B6
:100560007F916F915F914F913F912F910F900FBEAF
:100570000F901F9018958EE491E00E948D008FE4FB
:1005800091E00E948D0008958FED91E00E947D051D
:10059000882309F454C08FED91E00E949105482F03
:1005A00080330CF44CC08A3334F08436F9F083374E
:1005B00009F045C030C080915001909151019C01DB
:1005C00063E0220F331F6A95E1F7880F991F280F08
:1005D000391F20533040842F992787FD9095280F8D
:1005E000391F3093510120935001089560915001BB
:1005F000709151018EE491E00E94A9006091500138
:10060000709151018FED91E00E94260710925101E7
:1006100010925001089560915001709151018FE442
:1006200091E00E94A90060915001709151018FEDFD
:1006300091E00E94260710925101109250010895F6
:10064000EF92FF920F931F930FED11E0C80140E866
:1006500055E260E070E00E948404C80160E071E04F
:100660000E945C067EE4E72E71E0F72EC7016AE087
:1006700070E00E94ED010FE411E0C80169E070E054
:100680000E94ED01C7016AE570E00E94A900C8015F
:100690006AE570E00E94A9001F910F91FF90EF9012
:1006A00008950E94A0030E9420030E94C402FDCF6F
:1006B0001F920F920FB60F9211242F933F938F9397
:1006C0009F93AF93BF938091560190915701A09152
:1006D0005801B091590130915A010196A11DB11DE7
:1006E000232F2D5F2D3720F02D570196A11DB11D11
:1006F00020935A018093560190935701A09358017B
:10070000B09359018091520190915301A0915401ED
:10071000B09155010196A11DB11D80935201909396
:100720005301A0935401B0935501BF91AF919F9194
:100730008F913F912F910F900FBE0F901F901895A2
:10074000789484B5826084BD84B5816084BD85B5AC
:10075000826085BD85B5816085BDEEE6F0E0808173
:1007600081608083E1E8F0E0808182608083808125
:1007700081608083E0E8F0E0808181608083E1EB4C
:10078000F0E0808184608083E0EBF0E08081816034
:100790008083EAE7F0E080818460808380818260EA
:1007A00080838081816080838081806880831092D3
:1007B000C1000895282F30E0C90186569F4FFC01E3
:1007C00094912A573F4FF9018491882391F0E82FA3
:1007D000F0E0EE0FFF1FE859FF4FA591B49166239B
:1007E00029F48C91909589238C9308958C91892B71
:1007F0008C930895482F50E0CA0182559F4FFC0109
:100800002491CA0186569F4FFC0194914A575F4F2D
:10081000FA0134913323D1F1222331F1233021F431
:10082000809180008F7705C0243031F48091800062
:100830008F7D8093800018C0213019F484B58F77A4
:1008400004C0223021F484B58F7D84BD0DC02630D4
:1008500021F48091B0008F7705C0273029F4809172
:10086000B0008F7D8093B000E32FF0E0EE0FFF1F0C
:10087000EE58FF4FA591B491662329F48C91909581
:1008800089238C9308958C91892B8C9308951F92C2
:100890000F920FB60F9211242F933F934F935F93B4
:1008A0006F937F938F939F93AF93BF93EF93FF9338
:1008B0004091C600E091DB01F091DC01CF0101968F
:1008C00060E870E00E94AA079C018091DD01909190
:1008D000DE012817390739F0E55AFE4F408330937F
:1008E000DC012093DB01FF91EF91BF91AF919F91CC
:1008F0008F917F916F915F914F913F912F910F90C9
:100900000FBE0F901F9018955F926F927F928F92FB
:100910009F92AF92BF92CF92DF92EF92FF920F938E
:100920001F93CF93DF93EC013A014B01413482E4F2
:1009300058078FE0680780E078070CF07FC060E818
:1009400074E88EE190E0A40193010E94DF0721503A
:10095000304040405040CA01B90122E030E040E060
:1009600050E00E94DF0759016A01A6019501209518
:1009700030954095509594E0220F331F441F551F2A
:100980009A95D1F760E074E284EF90E00E94DF076F
:10099000CA01B9012FEF30E040E050E00E947F072C
:1009A000A40193010E94DF07C90181509F4F1816CF
:1009B00019061CF4522E5A9403C055245394521A0B
:1009C00060E079E08DE390E0A40193010E94DF07ED
:1009D0002150304040405040CA01B90122E030E08F
:1009E00040E050E00E94DF072095309540955095FB
:1009F00083E0220F331F441F551F8A95D1F760E013
:100A000074E284EF90E00E94DF07CA01B9012FEF82
:100A100030E040E050E00E947F07A40193010E9473
:100A2000DF07C90181509F4F181619061CF4822F49
:100A3000815002C081E0821B851500F5E885F985AB
:100A400081E090E00A8802C0880F991F0A94E2F7BB
:100A5000808360E079E08DE390E0A40193010E943F
:100A6000DF072150304040405040CA01B90122E028
:100A700030E040E050E00E94DF0704C0E885F985DF
:100A800010829501EC81FD813083EE81FF8120830E
:100A9000EA85FB85208141E050E0CA010E8402C056
:100AA000880F991F0A94E2F7282B2083EA85FB859B
:100AB0002081CA010F8402C0880F991F0A94E2F7AF
:100AC000282B2083EA85FB858081088802C0440F9B
:100AD000551F0A94E2F7842B8083DF91CF911F91F9
:100AE0000F91FF90EF90DF90CF90BF90AF909F90CD
:100AF0008F907F906F905F900895DC011296ED913A
:100B0000FC911397E058FF4F8191919180589F4F2E
:100B100020813181821B930B60E870E00E94AA075C
:100B20000895CF93DF93DC011296ED91FC9113971A
:100B3000EF01CE57DF4F48815981E058FF4F808148
:100B40009181E058F0408417950719F42FEF3FEF9B
:100B50000CC0E40FF51F2081CA01019660E870E027
:100B60000E94AA079983888330E0C901DF91CF9161
:100B70000895FC01A085B18521898C9190E0022E19
:100B800002C0959587950A94E2F780FFF6CF04841A
:100B9000F585E02D608308958AE091E09093E0016F
:100BA0008093DF018BE591E09093E2018093E10176
:100BB00085EC90E09093E4018093E30184EC90E075
:100BC0009093E6018093E50180EC90E09093E8013A
:100BD0008093E70181EC90E09093EA018093E90132
:100BE00086EC90E09093EC018093EB0184E080939D
:100BF000ED0183E08093EE0187E08093EF0185E0D3
:100C00008093F00181E08093F10108950F931F9389
:100C1000CF93DF938C01EB0109C02196D801ED91B0
:100C2000FC910190F081E02DC8010995688166234F
:100C3000A1F7DF91CF911F910F910895EF92FF924D
:100C40000F931F93CF93DF938C017B01EA010CC0BC
:100C5000D7016D917D01D801ED91FC910190F0815A
:100C6000E02DC80109952197209791F7DF91CF9149
:100C70001F910F91FF90EF900895DC01ED91FC9191
:100C80000280F381E02D099508950F931F938C0145
:100C9000DC01ED91FC910190F081E02D6DE0099572
:100CA000D801ED91FC910190F081E02DC8016AE03E
:100CB00009951F910F9108950F931F938C010E9426
:100CC0003D06C8010E9445061F910F9108952F927D
:100CD0003F924F925F926F927F928F929F92AF92CC
:100CE000BF92CF92DF92EF92FF920F931F93DF9309
:100CF000CF93CDB7DEB7A0970FB6F894DEBF0FBE87
:100D0000CDBF1C016A017B014115510561057105CB
:100D100049F4DC01ED91FC910190F081E02D60E35C
:100D2000099554C0882499245401422E55246624E0
:100D3000772401E010E00C0F1D1F080D191DC701DD
:100D4000B601A30192010E94BD07F80160830894D7
:100D5000811C911CA11CB11CC701B601A301920109
:100D60000E94BD07C901DA016C017D01C114D104E3
:100D7000E104F104F1F681E0E82EF12CEC0EFD1E09
:100D8000E80CF91C3E010894611C711CD501C401DA
:100D90000197A109B1096C01C818D90814C0F6015E
:100DA000EE0DFF1D60816A3010F4605D01C0695C6A
:100DB000D101ED91FC910190F081E02DC1010995E7
:100DC0000894E108F1086E147F0449F7A0960FB665
:100DD000F894DEBF0FBECDBFCF91DF911F910F9171
:100DE000FF90EF90DF90CF90BF90AF909F908F904B
:100DF0007F906F905F904F903F902F900895EF926B
:100E0000FF920F931F93CF93DF93EC017A018B0135
:100E100077FF0FC0E881F9810190F081E02D6DE24C
:100E2000099510950095F094E094E11CF11C011DCA
:100E3000111DCE01B801A7012AE00E946706DF91CB
:100E4000CF911F910F91FF90EF9008950F931F93F3
:100E50008C01AB01662757FD6095762F0E94FF0637
:100E6000C8010E9445061F910F9108952F923F924D
:100E70004F925F926F927F928F929F92AF92BF92AA
:100E8000CF92DF92EF92FF920F931F93DF93CF9356
:100E9000CDB7DEB73B014C0119012A016D897E896E
:100EA0008F89988D6A197B098C099D09621A730ACA
:100EB000840A950AA40193010E947F07E218F308AF
:100EC00004091509A80197010E94DF072A0D3B1D9F
:100ED0004C1D5D1DB901CA01CF91DF911F910F918A
:100EE000FF90EF90DF90CF90BF90AF909F908F904A
:100EF0007F906F905F904F903F902F900895629FEA
:100F0000D001739FF001829FE00DF11D649FE00D01
:100F1000F11D929FF00D839FF00D749FF00D659F62
:100F2000F00D9927729FB00DE11DF91F639FB00D61
:100F3000E11DF91FBD01CF0111240895991B79E02E
:100F400004C0991F961708F0961B881F7A95C9F759
:100F50008095089597FB092E07260AD077FD04D0C7
:100F600049D006D000201AF4709561957F4F0895FE
:100F7000F6F7909581959F4F0895A1E21A2EAA1B2E
:100F8000BB1BFD010DC0AA1FBB1FEE1FFF1FA21739
:100F9000B307E407F50720F0A21BB30BE40BF50B36
:100FA000661F771F881F991F1A9469F760957095BF
:100FB000809590959B01AC01BD01CF01089597FBF1
:100FC000092E05260ED057FD04D0D7DF0AD0001C0D
:100FD00038F450954095309521953F4F4F4F5F4FD6
:100FE0000895F6F790958095709561957F4F8F4F96
:100FF0009F4F0895AA1BBB1B51E107C0AA1FBB1F2F
:10100000A617B70710F0A61BB70B881F991F5A9594
:10101000A9F780959095BC01CD010895EE0FFF1FB3
:0C1020000590F491E02D0994F894FFCFA6
:10102C0052656164790000000000B90506061E06D1
:00000001FF
